:0300000002007C7F
:0C007C00787FE4F6D8FD75810A020003CD
:10000300E4F508E5085407FF700675A0FF63A00137
:10001300BF010363A002BF020363A004BF03036322
:10002300A008BF040363A010BF050363A020BF069D
:100033000363A040BF070363A080E508B4F003E4B3
:0B004300F5087F0112004E050880B890
:10004E00D3EF648094804025EF648094F8501ED3E3
:07005E00EF6480948040165E
:10006500E4F509F50A050AE50A7002050964214562
:030075000970F21D
:040078001F80E222E1
:00000001FF
