:030000000200AD4E
:0C00AD00787FE4F6D8FD75810E02009FFC
:0E009F0075A0FF7B107D017F0112004680FEE0
:100003008F0CD3E50C648094804037E50C648094B6
:0C001300F8502FD3E50C64809480402648
:10001F00E4F50DF50EAE0DAF0EE4FCFD7B207A80FE
:10002F00F9F8D3120089400A050EE50E70E7050DA9
:02003F0080E35C
:05004100150C80D12226
:060046008F088D098B0AF2
:10004C00750B01E50AD39400402FE50BF4F5A0E500
:10005C0008700DE50B25E0F50B7015750B01801084
:10006C00E508B4010BE50BC313F50B7003750B809E
:0C007C00AF09120003150A80CA75A0FF2E
:010088002255
:10008900EB9FF5F0EA9E42F0E99D42F0EC6480C8EE
:0600990064809845F0228E
:00000001FF
